:1000000000180020C1000000791700003D17000013
:100010003D1700003D1700003D1700003D17000090
:100020003D1700003D1700003D1700007917000044
:10003000791700003D170000E9260000B9270000ED
:100040007917000079170000791700007917000070
:100050007917000079170000791700007917000060
:10006000E10B0000791700007917000079170000F4
:10007000852800005D290000352A0000791700005E
:100080007917000079170000791700007917000030
:100090007917000079170000791700007917000020
:1000A000C91B0000791700007917000079170000BC
:1000B0007917000079170000791700007917000000
:1000C000F8B501F05DFB0821474A484B1A60484AE1
:1000D000484B1A60484A494B1A60494B1A780A4201
:1000E00002D01A780A431A702A22464B46481A70E0
:1000F00000234649464C1A188A4203D2E558043375
:100100001560F8E70021434B434A934201D202C3F2
:10011000FBE70023414A424958589446985004331B
:10012000C02BF9D100210326FF2580248A083D4BEE
:100130009200D2180B002F003340DB009F40106864
:100140000131B84307002000984003003B4313608F
:100150002029EBD16246344B1A608A22334B1A7045
:10016000334B663A5A707C321A709E3A9979114232
:10017000FCD0102299791142FCD10C209A792C499B
:100180000240082AFAD1053A0A713D324A71203AF2
:1001900099791142FCD0402299791142FCD025492D
:1001A000254A11602021224A117014399A790A4097
:1001B0000C2AFBD1214A224B1A60224A224B1A6098
:1001C0000022224B1A60224B07321A60214A224B2E
:1001D0001A6062B601F0CCFB06F00CFB01F0D6FA17
:1001E00001F0A4FAFEE7C046300004F03480044079
:1001F000823F0000388004400100000F3C80044032
:1002000002D0074000E0074020FDFF1FB0FEFF1FA7
:10021000486F0000B0FEFF1FC401002000F9FF1F5F
:100220000000000000E400E008ED00E0005006409F
:10023000004006400000011044800440C000050555
:10024000048004407FBB000014E000E018E000E000
:1002500010E000E00000202020ED00E0FFFFFFFFA5
:10026000FFFFFFFFFFFFFFFFFFFFFFFFFFFFFFFF9E
:10027000FFFFFFFFFFFFFFFFFFFFFFFFFFFFFFFF8E
:10028000FFFFFFFFFFFFFFFFFFFFFFFFFFFFFFFF7E
:10029000FFFFFFFFFFFFFFFFFFFFFFFFFFFFFFFF6E
:1002A000FFFFFFFFFFFFFFFFFFFFFFFFFFFFFFFF5E
:1002B000FFFFFFFFFFFFFFFFFFFFFFFFFFFFFFFF4E
:1002C000FFFFFFFFFFFFFFFFFFFFFFFFFFFFFFFF3E
:1002D000FFFFFFFFFFFFFFFFFFFFFFFFFFFFFFFF2E
:1002E000FFFFFFFFFFFFFFFFFFFFFFFFFFFFFFFF1E
:1002F000FFFFFFFFFFFFFFFFFFFFFFFFFFFFFFFF0E
:10030000FFFFFFFFFFFFFFFFFFFFFFFFFFFFFFFFFD
:10031000FFFFFFFFFFFFFFFFFFFFFFFFFFFFFFFFED
:10032000FFFFFFFFFFFFFFFFFFFFFFFFFFFFFFFFDD
:10033000FFFFFFFFFFFFFFFFFFFFFFFFFFFFFFFFCD
:10034000FFFFFFFFFFFFFFFFFFFFFFFFFFFFFFFFBD
:10035000FFFFFFFFFFFFFFFFFFFFFFFFFFFFFFFFAD
:10036000FFFFFFFFFFFFFFFFFFFFFFFFFFFFFFFF9D
:10037000FFFFFFFFFFFFFFFFFFFFFFFFFFFFFFFF8D
:10038000FFFFFFFFFFFFFFFFFFFFFFFFFFFFFFFF7D
:10039000FFFFFFFFFFFFFFFFFFFFFFFFFFFFFFFF6D
:1003A000FFFFFFFFFFFFFFFFFFFFFFFFFFFFFFFF5D
:1003B000FFFFFFFFFFFFFFFFFFFFFFFFFFFFFFFF4D
:1003C000FFFFFFFFFFFFFFFFFFFFFFFFFFFFFFFF3D
:1003D000FFFFFFFFFFFFFFFFFFFFFFFFFFFFFFFF2D
:1003E000FFFFFFFFFFFFFFFFFFFFFFFFFFFFFFFF1D
:1003F000FFFFFFFFFFFFFFFFFFFFFFFFFFFFFFFF0D
:10040000FFFFFFFFFFFFFFFFFFFFFFFFDEF9FFFF23
:1004100010B5064C2378002B07D1054B002B02D0DA
:10042000044800E000BF0123237010BDB0FEFF1F91
:1004300000000000406F0000084B10B5002B03D0F7
:100440000749084800E000BF07480368002B00D1B7
:1004500010BD064B002BFBD09847F9E700000000C9
:10046000B4FEFF1F406F0000B0FEFF1F0000000041
:1004700070B5040008000D0006F0C6FA23680200FB
:1004800029005B682000984770BD70B50500FFF734
:10049000EFFF0400280001F053F8001970BDFFFFC2
:1004A00037B5FA20C00001F049FA0E4C0E49200081
:1004B000FFF7EBFF0D4D58227621280000F0B8FE23
:1004C000002804D10A492000FFF7DFFFFAE70423E0
:1004D00028000193009302220133032100F002FD62
:1004E00037BDC04694FDFF1F406A0000CCFEFF1FD1
:1004F0004C6A000073B5224C22492000FFF7B8FF78
:10050000214E0225300000F0D3FE05F095FF009546
:1005100002000B00200001F053F81C492000FFF7F7
:10052000B4FF1B492000FFF7A3FF300000F000FFDD
:1005300005F082FF009502000B00200001F040F85A
:1005400014492000FFF7A1FF13492000FFF790FF97
:100550003000124900F0CEFF05F06EFF009502005A
:100560000B00200001F02CF80D492000FFF78DFF53
:10057000200000F0E5FFFA20C00001F0DFF973BDB4
:1005800094FDFF1F806A0000CCFEFF1F8F6A0000F1
:10059000936A00009F6A0000A36A000000507D4437
:1005A000B66A000010B5054C0549200000F0E8FBD4
:1005B000044A0549200002F0EBFA10BDCCFEFF1FF3
:1005C00024FDFF1F20FDFF1FCD0D00000020704700
:1005D0000300383039331B780078181A704702004E
:1005E00001003832393113780978994204D9591CFD
:1005F0001170C318187E01E00120404270470300CB
:100600000200383339321B7812789A4202D9C31863
:10061000187E01E00120404270477047030000222D
:1006200010B55E331B8893420DD004005D342378EF
:10063000202B02D90123037105E05A1C22700122EC
:10064000C3183B331970100010BD70B514000200C0
:10065000030000205E321288824212D01D00212247
:100660005D352878121A944202D901241C711400B5
:100670003B331818220006F0F7F820002B781B19DE
:100680002B7070BD43691A685B68126813420FD003
:10069000084A0369914201D81F2205E0064A9142A7
:1006A00001D8122200E002225A70022203699A71D4
:1006B0007047C0467F1A06003F420F000200F8B59F
:1006C0000023040038321370537024329370137077
:1006D000537043668366D37040696427016842683B
:1006E0000D682A430A6022691549937023000C2281
:1006F000613360691E788619337A5343CB185D687D
:10070000737BE0261B02F60033403B432B60230043
:1007100062331B78C018837C5A43C37D89181B023F
:100720004A681E403E43166006492000FFF7AAFFB4
:10073000202322695371802223699A70F8BDC04634
:10074000506B0000A0860100102270B50369040000
:10075000DD78EDB2154203D140222A4004D12BE0CE
:10076000DA706B06F8D476E004231D403A4B1BD0B8
:10077000250000225D352A701A70636E934200D006
:10078000984723002A783B33002A02D1012129709F
:100790001A70D02221698A701B7822691371230094
:1007A00001225C331A7053E001221A70230039339E
:1007B0001D702269C02330E0602120698379DBB29B
:1007C000194060290CD140398B438371A36E002BF3
:1007D00006D0210038310A7022003932107898474B
:1007E0001023226991780B401BD001231D4013D1A7
:1007F000210020005C315D300B780078984206D9EA
:10080000581CE31808703B331B78137100E0157116
:10081000D023226993701BE0C023937023691B7956
:1008200016E0210060310B70202193790B432100E9
:100830009371236939311A790B78D2B21F2B07D8FB
:1008400005480078002803D0581CE31808701A7671
:1008500002222369DA7070BD0CFFFF1FF0B5002182
:100860000400334B85B01B680293029B0193202048
:100870002269D378034257D02D4B01981B6803930C
:10088000039B1B1A0F2BF2D9002945D12500613596
:1008900062692B780531D318187A00F0F5FF2B78B0
:1008A00062690121D3189F7C0926380000F0ECFF13
:1008B0000021380000F0B6FF5023013BFDD101219B
:1008C000380000F0AFFF5023013BFDD1013E002E68
:1008D000EED10C2166692B78164DF3181A7A642034
:1008E0004A43AA185768E0225B7BD2001B021340E0
:1008F00003433B60230062331B78F618B37C5943F3
:100900006D18F17D6B6809020A4010431860A0233E
:10091000013BFDD10121AAE7102BA8D00020907047
:10092000802223699A7000E0012005B0F0BDC04626
:1009300010FFFF1F506B000012230269F0B5D37047
:10094000202287B0036901919D780400154002D0F0
:1009500094329A700BE0FFF781FF03000420002B14
:1009600062D023005F331D70B0232269937020266C
:100970002E4B20691A680292029DC278324048D0FC
:10098000002202252026009222005D321278009972
:100990008A4233D962183B32127821690A711A6887
:1009A00021690592059A9446CA78D2B217002F4061
:1009B0000AD1324208D060461A680492049A121A88
:1009C000052AF1D98F702BE01020CD702169CA78EB
:1009D000D2B2024201D1324203D1802304208B7073
:1009E0000DE0012100980A4204D0434258410323FC
:1009F000181A07E00130C2B20092C5E70020019B3F
:100A0000002B02D080232269937000235E34237070
:100A10000AE0196803910399491B0429ADD9827032
:100A20008022042023699A7007B0F0BD10FFFF1FD9
:100A3000F0B516008BB0020001930023383213701A
:100A400001321370009202691233D37020220369BD
:100A500005009C780F00144002D094329A700AE08E
:100A6000FFF7FCFE002800D1B4E02B005F331C70C0
:100A7000B0232A6993702022944658490B68029348
:100A800002982B696246DC7814400A00002C06D1DB
:100A90000A680392039A121A042AF3D912E0012178
:100AA0007F000F43FFB21F7102271368049304985D
:100AB0002B69DC783C4009D1116805910599091A28
:100AC0000529F6D99C702B69802211E00222DA7088
:100AD0002B690F32DC78144003D06F329A700024F7
:100AE00078E0002E06D101998022002900D1203221
:100AF0009A706FE0A822012E00D0A0229A700222E4
:100B00002B6994461B79002334492A690868012E11
:100B100028D00690069F6446D078204006D10C6805
:100B20000794079CE41B052CF5D927E0022110202F
:100B3000D1702969CA78D2B202424AD10018024261
:100B400047D0013EF6B2012E01D1A8228A702A694F
:100B50001F2B05D81279591CEB181A76CBB2D3E7A4
:100B60001279D1E702270890089ED078384007D143
:100B70000C680994099CA41B052CF6D9907023E0FD
:100B800002211020D1702969CA78D2B2024209D05C
:100B9000C8705022013AFDD1296908388A78824309
:100BA0008A7016E01C00920614D5B0228A702A6959
:100BB0001F2B05D81279591CEB181A76CBB200E01E
:100BC0001279019A002A02D080212A699170009A34
:100BD00013701C0020000BB0F0BDC04610FFFF1FBB
:100BE00010B50248FFF7B0FD10BDC04624FDFF1F41
:100BF00070477047704710B50400102100F0E6FD03
:100C0000200010BD10B50400102100F0DFFD200011
:100C100010BDFFFF70B50C00050028220021200048
:100C200005F02BFE0B220A49200005F0F4FE0023FC
:100C30000122E372E260AA68636222610D22054B21
:100C40006261A361044BE361044B236270BDC04643
:100C50001C6B0000000020C20000AA420AD7233CFF
:100C600070B50C00050028220021200005F005FECB
:100C70000B220A49200005F0CEFE00230122E37278
:100C8000E260AA68636222610622054B6261A36189
:100C9000044BE361044B236270BDC0461C6B000033
:100CA0000000964300808944A69B443CF8B50F00A1
:100CB00004005021580700D504310820034200D019
:100CC0000143002A01D1012319430025104E217050
:100CD0006B00F15A0F4803F047F9874204D30E4ED8
:100CE000735D0025637008E06B1C1E2BF7D01D00A0
:100CF000EEE76B1C1E2B08D01D00054A6B00D15A75
:100D0000064803F031F98742F3D3735DA370F8BD51
:100D1000146D000000366E01506D0000006CDC02A6
:100D200010B50400FFF7C2FF200010BD836882B039
:100D30000191002B07D072B6084A816813680B40F6
:100D4000C360136062B601AA01681378CB700AC849
:100D50001B7AD3185B784B7002B0704780E100E0DB
:100D60008368002B02D0C268014B1A607047C046EE
:100D700000E100E010B50121FFF7DEFD10BDFFFF2F
:100D800070B5FF23002504008560C560016003770E
:100D900043778377C377102000F014FD094BC460BC
:100DA000083303608C235B008360A060102000F098
:100DB00009FD054B856008330360C460E0602000D6
:100DC00070BDC046006B0000246B000010B504002D
:100DD0008068002802D003685B689847E0680028B4
:100DE00002D003685B689847200010BDF8B51F2348
:100DF000C35605000F000726002401330AD14368BB
:100E00001A6891711A6813785BB2002BFBDA90793B
:100E1000C0B219E0E87F002100F004FD0121B140DB
:100E2000687F394000F0FEFCE87F0121640000F09B
:100E3000F9FCA87FE4B200F015FD002801D00123E1
:100E40001C43013EE6D22000F8BDFFFF1C23F7B58E
:100E5000C35604000E001500013318D10368027C4C
:100E6000190052003B310A70012223315D330A70B0
:100E70001A700068310003681B68984720682900D1
:100E800003681B6898472068FFF774FF26E01F235C
:100E9000C35601330AD1476811490023012201A832
:100EA000FFF73EFF01993800FFF740FF207F002148
:100EB00000F0B8FC7F2120003140FFF797FF2900A8
:100EC0002000FFF793FF207F012100F0ABFC1F23E0
:100ED000E356013302D16068FFF742FFF7BDC04619
:100EE00020A10700F7B5040025003F2694463C35B5
:100EF0002F7889013E400E430727614639408C46D2
:100F0000F6B23B403100DE006346B9431943382353
:100F100008AA107809AA127899433143E618019279
:100F2000327838409A4313002970019AC1000B436C
:100F30003A40BB4313433370FB40520113438200DA
:100F40001A432000F521FFF781FF2B7820005A0774
:100F5000110E9A06520F92009B090A431A43F4217C
:100F6000FFF774FFF7BDFFFF1C2373B5C3560400E2
:100F70000E0001331FD10368027C190052003B317F
:100F80000A701A0001255E325D3315701D7000680D
:100F9000310003681B6898472068FFF7EBFE2B00C1
:100FA0002A00217C2068FFF743FD206803685B6905
:100FB0009847C5B227E01F23C35601330AD14568BD
:100FC00012490023012201A8FFF7AAFE0199280077
:100FD000FFF7ACFE207F002100F024FC80212000E0
:100FE0003143FFF703FF00212000FFF7FFFE01213F
:100FF0000500207F00F016FC1F23E356013302D1C9
:101000006068FFF7ADFE280076BDC04620A107004E
:101010001C2373B5C35604000E00013326D10368A8
:10102000027C190052003B310A701A0001255E3221
:101030005D3315701D700068310003681B689847A8
:101040002068FFF797FE217C2B0002222068FFF723
:10105000EFFC206803685B699847050020682D0253
:1010600003685B699847284385B22EE01F23C35667
:1010700001330AD1456816490023012201A8FFF770
:101080004FFE01992800FFF751FE207F002100F05C
:10109000C9FB802120003143FFF7A8FE002120007A
:1010A000FFF7A4FE002105002000FFF79FFE2D02A0
:1010B000284385B20121207F00F0B4FB1F23E356B3
:1010C000013302D16068FFF74BFE280076BDC046B1
:1010D00020A1070010B5FFF79BFF40BA80B210BDFA
:1010E0001C2373B5C35604000E0001332AD10368D4
:1010F000027C190052003B310A701A0001255E3251
:101100005D3315701D700068310003681B689847D7
:101110002068FFF72FFE217C03222B002068FFF7B9
:1011200087FC206803685B699847050220680368AC
:101130005B699847054320682D0203685B699847FF
:10114000054332E01F23C35601330AD145681849CD
:101150000023012201A8FFF7E3FD01992800FFF712
:10116000E5FD207F002100F05DFB80212000314360
:10117000FFF73CFE00212000FFF738FE00210502AA
:101180002000FFF733FE002105432000FFF72EFE6D
:101190002D0205430121207F00F044FB1F23E3566D
:1011A000013302D16068FFF7DBFD280076BDC04641
:1011B00020A1070010B588210400FFF78BFF8A21CA
:1011C00020842000FFF786FF8C2160842000FFF739
:1011D00081FF8E21A0842000FFF77CFF9021E08416
:1011E0002000FFF777FF922120852000FFF772FF94
:1011F000942160852000FFF76DFF9621A0852000D7
:10120000FFF768FF9821E0852000FFF763FF9A2130
:1012100020862000FFF75EFF9C2160862000FFF7FC
:1012200059FF9E21A0862000FFF754FFE08610BDE5
:1012300073B5040001741C2020561600431C03D112
:101240002068FFF73BFA1BE0C0B2012100F0EAFA88
:10125000207F012100F018FB1F202056431C03D1E2
:10126000606801F09DFC0BE0C0B2012100F00CFBB6
:10127000607F012100F008FBA07F002100F004FB4B
:10128000D0212000FFF770FE0025B0420ED12000D3
:10129000FFF790FF0523019500951A000321200018
:1012A000FFF720FE642000F049FB0135280076BDE1
:1012B00010B5FA210400FFF713FF228C03129B1ACA
:1012C000C01152005B43801A2221625E1B135043FF
:1012D0002421625EC01253439B13C0180523A061F2
:1012E00058438030001203F071FA024903F040F8CD
:1012F00010BDC0460000C84273B50C00242605008E
:1013000032000021200005F0B8FAAB682660636067
:101310000D23A360054BE8681B680193019B2361C3
:10132000FFF7C6FF6061012076BDC04610FFFF1FBA
:10133000F0B587B00290FFF7BBFFF7210298FFF7E7
:10134000CFFE0121029B05909B6958480093009AAB
:101350004942D31712184B41100019001F00160004
:1013600002F06EFF00900191029B32002820185E6F
:101370003B00C11702F064FF030D0D031D43029BE8
:1013800004032A20185E009A019BC11702F058FF3F
:101390000B069C46020A60460B12024312196B416F
:1013A00019008023100000221B0280185941029B63
:1013B000DA8C002302F044FF4B100393CB17049305
:1013C000049A039B002013436ED0029B3020185ECA
:1013D000009A019BC11702F033FF029B04002E20EC
:1013E000185E32003B000D00C11702F029FF8C4649
:1013F0006646C10B73040B434204A4185D41059B70
:101400001F1180235B03DB1BDF175A08F907114309
:101410000022D807029B2C27DF5FFB0012196B41CB
:10142000801A9941224A002302F00AFF039A049B82
:1014300002F0E2FECB04440B1C43029B0600362064
:10144000185E4D130F0022002B00C11702F0F8FEAA
:1014500022002B0002F0F4FECB01440E1C43029B41
:1014600032003420185E4D163B00C11702F0E8FE32
:10147000A4197D41C20C4E033243CB14A4185D4124
:101480002906220A0A4302992B1232240C5FE6171E
:10149000250F3101294320018018594102F01AFF1C
:1014A000EE21890503F07EF807B0F0BD000CFEFFC9
:1014B000350C000073B50C00242605003200002115
:1014C000200005F0DAF9AB68266063600623A360AC
:1014D000064BE8681B680193019B2361FFF728FF17
:1014E000034902F045FF6061012076BD10FFFF1F38
:1014F0000000C84210B50C1CFFF71AFF0C4902F09F
:1015000037FF211C02F034FF04F096FF8022094BC4
:10151000920501F07BFB02000B000020064904F05D
:1015200067FB0022054B04F0E9F804F0D9FF10BD79
:101530000000C842C05BC83F0000F03F40A5E54046
:1015400037B5022504002A00054901A805F08CF9E9
:1015500023682A005B6801A9200098473EBDC04669
:10156000406B0000F0B50D000F2185B09446134A82
:101570006944ACB22F0C574301345443BBB2260C20
:101580001C19A4193B0C240CDB19E3180A245B0872
:101590005C432D1B303501390D701D1EE9D16346AA
:1015A000002B02D02D2301390B70CA4304ABD21893
:1015B00003685B68984705B0F0BDC0463333000050
:1015C000F0B51C0089B00EAB1B780190029321008E
:1015D00023001000150004F05FFE4B49002814D1D1
:1015E0000122660076085242484B2800310004F080
:1015F00053FE00280ED10122444B524228003100F4
:1016000002F0BEFD002805D141490198FEF730FFE8
:10161000040076E0E0223F4B12062800210002F091
:10162000B9FD002801D03C49EFE7E0223B4B120610
:101630002800210002F09AFD0028F4D100220023A6
:101640002800210002F092FD071E03D0802301270D
:101650001B06E418002600203149029B9E4207D059
:10166000A022304B120604F049F8731CDEB2F4E7F6
:1016700002000B002800210003F0F0F80290039113
:1016800002F00AFE3A00010005000198FFF76AFF28
:101690000400002E35D0280004F096FE02000B0056
:1016A0000298039904F0A4FA2E2304AA1370321CA2
:1016B0000F2E00D90F220025D3B2029300221A4B1D
:1016C00004F01CF80F00060002F0E6FD04AAC0B208
:1016D000AB18020030325A7004F034FE0B000200E6
:1016E0003900300004F084FA029B0135AB42E5D1A9
:1016F0001A00019B01321B68D2B25B6804A90198F1
:101700009847200009B0F0BD426B0000FFFFEF7F5B
:101710004A6B0000FFFFEF41466B0000FFFFEFC187
:101720000000E03F9999B93F0000244010B5FEF752
:10173000B7FEFEF7DFFE00F05BFFFAE770B580252D
:101740008026ED02F6000B4C23682B4201D000F0FE
:101750003BFA2368334201D001F094F823681B055B
:1017600001D501F0FBF82368DB04ECD501F062F948
:10177000E9E7C0463480044010B5FFF7DFFFFFFF04
:101780000022014B1A607047008104407047FFFF40
:101790000A49030010B50868002B0DD06A46084CB2
:1017A000C3181219934206D305F01EF80C230360E8
:1017B0000120404200E00B6010BDC04690FDFF1FBD
:1017C00000FEFFFF10B505F03BF810BD10B505F0A9
:1017D00041F810BDF8B506000D00170000243900CF
:1017E000300002F0BDFB0B003733DBB2092901D812
:1017F0003031CBB230002B55390002F02BFB061EE6
:1018000001D00134EBE72B1958702B005A1B94427E
:1018100006DD1A78295D19702A550133013CF5E778
:101820002800F8BD10B51A2818D80C2358430C4AC4
:10183000835810181C7D027A224205D0002901D05D
:101840001A710BE01A7209E043681A68002902D085
:1018500003210A4301E002218A431A6010BDC046F9
:10186000506B000000231A280AD80C335843054A4D
:1018700083581018007A1B7C0340581E8341DBB24A
:1018800018007047506B0000F0B51A282FD80C22B2
:1018900017004743164CE5196B682600012901D053
:1018A000042911D1504334583018257D027A202064
:1018B0002A432275A22252001A601A68042901D113
:1018C000024313E0824311E038592C7A027DA2438F
:1018D00002758022002908D0022902D10422FF3299
:1018E00004E00022032901D1812252001A60F0BDD8
:1018F000506B000072B60C4B1A680C4B18680C4BFE
:101900001B6862B65B0104D5322393429B415B4264
:10191000C018084B9A1A084B5A43FA239B005843A5
:10192000920D10187047C04618E000E010FFFF1F2E
:1019300004ED00E07FBB00005555010070B50400C8
:10194000FFF7D8FF0500002C0FD0FFF7D3FF074BA0
:10195000401B984206D9013C002C06D0FA239B007C
:10196000ED18F2E700F044FEEFE770BDE70300007A
:1019700080221E4BD20510B51A608022002012066C
:101980001A601B4B1B4918601B4B1C4A196028230B
:1019900013601B4A1B4C13601B4A13601B4A1360E5
:1019A0001B4A13601B4A1360092222601A4C2060F4
:1019B0001A4C21601A4C23601A4C23601A4C226086
:1019C0001A4C20601A4801601A490B601A490B60D2
:1019D0001A4B1A6000F0FEFE1920FFF7AFFF00F06F
:1019E000E1FB1420FF30FFF7A9FF10BD00E100E08C
:1019F00004800340FFBF0000088003400C800340C8
:101A000014800340008003401C8003402480034076
:101A10002C8003403480034004900340089003402E
:101A20000C900340149003400090034004A0034036
:101A300008A003400CA0034014A0034000A00340F2
:101A40000223F0B50A4A0B4E1478C8272343DB0063
:101A5000F518686008480578002D00D1403F09045A
:101A60000F43F75001235D405C4005701470F0BDDA
:101A70007CFFFF1F00F8FF1FF4FFFF1F431E10B580
:101A80000020032B0ED872B6074A99008858002808
:101A900007D044685B008C50044904885A5A121BD2
:101AA0005A5262B610BDC0466CFFFF1FAC01002049
:101AB000431E0020032B09D872B6054A9B009B5891
:101AC000002B02D001305B68FAE762B67047C0466F
:101AD000C0FFFF1FF8B572B60123174A08259446C8
:101AE0001E00164964465A1EA25C2A421AD05F01A3
:101AF0007C589A00002C05D1CB1908305860104B47
:101B0000CB5109E03243D2005458002C0AD18B1833
:101B1000083058600B4B8B500B4A1378013B137005
:101B200062B608E00133052BDCD162B60022064B19
:101B30001A7000F0D1FBF8BDBC6C000000F8FF1F6C
:101B400088004000C8004000EAFFFF1F421E10B599
:101B5000032A30D8022380001843174BC0001B18FB
:101B600072B6164CA05C03280BD802F05FF916047D
:101B70000207052012E0083302200FE0083304209A
:101B80000CE00F48920014580E4B002C01D111505C
:101B900001E09858416099500CE00320A0540A00DD
:101BA00008325A60C822180700D4403A098809044C
:101BB0000A431A6062B610BD00F8FF1F28FFFF1F1E
:101BC000C0FFFF1FD0FFFF1FF7B5B64B1C781D00ED
:101BD0000423E4B21C421DD0B34B1B78002B16D05B
:101BE000B24A1378DBB2002B05D0013BDBB2137095
:101BF000002B00D100BEAE4A1378DBB2002B06D01A
:101C0000013BDBB21370002B01D100F0CDFC0422AC
:101C1000A44B1A700822224000D159E2A54BA64FCE
:101C20001B78DBB29C08E4001D093C19002D00D094
:101C3000DFE1226863689006000F01380C2800D9A4
:101C4000D3E102F0FDF896019601D201D201D20152
:101C5000D201D201D201AF01D201D201D2010D00D5
:101C60001A68964E5B689649736000230B600121E9
:101C7000944832602060944C92B22170934C3B6146
:101C8000BB610190A24218D8D020C000824200D38C
:101C9000E7E081204000824200D1C4E006D8802ADB
:101CA00000D1A9E0822A00D1ABE0F7E0884B9A424C
:101CB00000D1C7E0FF33FF331AE08648824200D1EB
:101CC00054E110D888231B019A4200D18EE0803362
:101CD0009A4200D0E2E03C003D00B278724B2034E2
:101CE0001A70A03508E07C498A4200D1CEE07B4BD7
:101CF0009A4200D114E1D1E080222368134203D03C
:101D00006068083800F0E8FA0834AC42F4D10024E6
:101D10002500734BE058002805D04368009300F07D
:101D2000DBFA0098F7E76E4B18516E4BE0506E4BA4
:101D3000E058002805D04368009300F0CDFA0098E1
:101D4000F7E7694B694A1851694BE0506B00D05274
:101D5000684BE85C0238032807D802F067F80204F1
:101D60000204002200E001225A5501350434042DFA
:101D7000CFD100230124604D2B70604B6049621E5F
:101D8000E3188A5C9B001A7008231A4220D000F0E6
:101D900085FA6301002805D0FA1808305060594AC6
:101DA000FA5003E0F8502B7801332B7000F076FAEC
:101DB0000122A3001343DB00002805D0FA180830E5
:101DC0005060019AFA5003E0F8502B789B182B7062
:101DD00002210023A2001143C9007B5003210A43C2
:101DE0008A400134BB50052CC7D19AE02E4B464C9B
:101DF0001B7823700B0095E0434C23706370022323
:101E000090E07F22B0880240042A47D83E4C9200DE
:101E1000237063703D4BD218022312781A4200D10E
:101E200080E021707EE07F23B2881A40042A35D8F2
:101E30007388002B32D10220344992005218117855
:101E4000814329E07F23B2881A40042A26D8738868
:101E5000002B23D102202D49920052181178014302
:101E60001AE07288B1882A4B5C68002C16D018885A
:101E7000904209D15888884206D1120A032A01D11A
:101E800023784FE01B894DE00C33EDE7214A1168C0
:101E9000214A1160B178214A117042E00F221B4B98
:101EA0001A7063E080200740F3FFFF1F7DFFFF1FD4
:101EB000F5FFFF1F9020074000F8FF1FE0FFFF1F06
:101EC00014FFFF1FC8004000F4FFFF1F8106000041
:101ED0000203000021200000212200002123000035
:101EE0006CFFFF1F18FFFF1FC0FFFF1FAC0100208A
:101EF000D0FFFF1F28FFFF1FEAFFFF1F30C80110A0
:101F0000BC6C000088004000EBFFFF1FC0200740B2
:101F1000C06C000010FFFF1FBC0100200400002067
:101F200000231C00F5889D4200D91D002E00402D85
:101F300000D9402620003100FFF782FDA419AD1B17
:101F400003D12F00402E04D010E04027AF4200D92B
:101F50002F0020003900FFF773FDE419ED1B01D1BC
:101F6000402F03D1764B1C60764B1D800122764BAF
:101F70003AE07649764A0988914210D100227549A3
:101F8000985C88540132072AFAD10B68862B02D15B
:101F9000714B08321A7000210800FFF751FD6F4B9A
:101FA000236022E0664F3E68002E13D0654B1C88EC
:101FB0002500402C00D9402529003000FFF740FDC6
:101FC000641B604BA4B21C80002C01D1402D00D1B9
:101FD00074193C60A0225D4BD2001988914204D153
:101FE00000225A709A785E4B1A700122564B1A7072
:101FF0006AE008226068013D0838EDB2134037D02E
:1020000000F06AF95749A8004258574B002A1CD0E3
:10201000566846501100585D0831616003280BD89E
:1020200001F004FF02040608032104E0022102E09B
:10203000052100E0042159550821C8230C4200D194
:10204000403B1288120413433DE0585D032808D832
:1020500001F0ECFE3A3A0204002200E001225A5557
:1020600032E008221440621E944102345C552BE099
:102070002268110C8AB2028000291ED03B4943809D
:102080004360AB005F583A4E002F01D1585001E039
:10209000F158486037496D00F0506B5AD2186A52B7
:1020A00000F0FCF8002802D00830606005E0324AF9
:1020B000206013780133137006E008231C4201D11D
:1020C0002E4B00E0254B236008222D4B1A707CE537
:1020D000012004421ED002231B49284C0B70294BBF
:1020E000294E1A70294B1C609C60294C1A61DC60D7
:1020F0000D249A615E60274B1C70FF23264C2370D1
:10210000174C2B702270254A13709F22244B1A7093
:10211000087013E063B2002B04DA0D221D4B1A7015
:1021200080232B700222144204D01B490B78DBB2AF
:102130000B702A7010231C4200D02B70F7BDC046D4
:1021400014FFFF1FE8FFFF1F94200740E0FFFF1F61
:1021500021200000B40100207DFFFF1FC8004000C7
:1021600098200740C0FFFF1F28FFFF1F6CFFFF1FC5
:1021700018FFFF1FAC010020EAFFFF1F880040008E
:10218000802007407CFFFF1F2CFFFF1F00F8FF1F70
:1021900080FFFF1FC0200740882007408C20074099
:1021A0008420074010B500F0B7FC002211001B4B43
:1021B000D150981808324160882AF9D180201849F6
:1021C000C0020A6802430A601A0A1649D2B20A70AB
:1021D0001A0C1549D2B20A70144A1B0E1370FF2351
:1021E000134A00201370134A13491370134A1370D3
:1021F00001220A701249087012490A70124A1168C5
:1022000099430B0070210B43136080220F4B520443
:102210001A6010220E4B1A7010BDC04600F8FF1F46
:10222000348004409C200740B0200740B420074081
:102230008020074088200740942007401020074056
:10224000002107408420074018E400E000E100E09E
:102250000821074010B500F0BFF810BD10B500F020
:102260008BF810BD10B500F05FF810BD10B500F090
:10227000A3F810BD10B500F069F910BD10B500F05D
:102280003FF910BD10B50800110000F0BFF810BDF7
:1022900010B5080000F02AF910BD704770B572B68D
:1022A0000B4D2C68200001F089FF0B2802DD62B67F
:1022B00000200CE080231B06C3409C432C6062B6C8
:1022C00048235843034B181800230360436070BD34
:1022D000A4FDFF1FC0F9FF1F10B504000E484821E0
:1022E000201A01F0B7FD0B2814D80C4B1B78002BDB
:1022F00007D00B4B1B78002B03D02000FFF7EAFB25
:1023000008E072B680231B06C340064A11680B43DF
:10231000136062B610BDC046C0F9FF1FEAFFFF1F81
:10232000F3FFFF1FA4FDFF1F70B5114D2B68002B9D
:102330000CD0286843885A1CC3181C7A03889A4218
:1023400012D3FFF7C9FF00232B600EE0094B1B7867
:10235000002B02D10120404208E00320FFF78EFB52
:1023600028600028E5D1F5E74280200070BDC04616
:1023700000000020F3FFFF1F10B50D4C2368002B59
:1023800003D02268002A0ED103E00A4B1B78002BF1
:1023900002D10120404209E00320FFF76FFB2060DB
:1023A0000028EED1F5E75388D318187A10BDC0463F
:1023B00000000020F3FFFF1F054B9888054B1A68AB
:1023C000002A03D0138852889B1AC0187047C04651
:1023D000AC0100200000002010B50A4B1B78002B38
:1023E0000FD0094C2068002803D0FFF775FF0023A9
:1023F00023600320FFF742FB002802D0FFF76CFFA9
:10240000F7E710BDF3FFFF1F00000020314A012352
:10241000F0B50C00170085B0019002911370039382
:10242000002C53D02C4D2B68002B25D12B4E2C4B40
:102430001B78DBB2002B01D13B7017E00420FFF7C3
:1024400037FB072809D86B461B7B3B70FFF726FF3D
:10245000214B186000280FD13870013E214B002E0F
:1024600002D01A78002A04D001221A7001204042BA
:102470002EE000F0BDF8DAE700221A4B29681A7046
:1024800040234A88981A2300844200D90300080098
:1024900008308018D2184A800022E41A934204D0EF
:1024A000019EB65C86540132F8E7019AD318019375
:1024B0004B883F2B06D9402304200B80FFF746FBB7
:1024C00000232B600522084B1A70A9E702983C7084
:1024D00005B0F0BDF6FFFF1FF8FFFF1F09750000F4
:1024E000F3FFFF1FFCFFFF1FF5FFFF1F07B56B4644
:1024F000D871073301211800FFF788FF0EBDFFFFD9
:10250000012370B50E4C0F4D23702B68002B10D19A
:102510000D4B1B78002B02D1002020700FE004200F
:10252000FFF7C6FA0728F7D8FFF7B8FE286000289B
:10253000F2D02B6858884023181A0023237070BDEE
:10254000F6FFFF1FF8FFFF1FF3FFFF1FF7B5124B4A
:102550001B78002B1FD00126104F114B3C681E70BA
:102560000193104D002C09D000262E7063882100A5
:1025700023800420FFF7EAFA3E6009E0FFF78EFEB1
:10258000011E04D004202C70FFF7E0FA00E02E704A
:102590000023019A1370F7BDF3FFFF1FF8FFFF1F21
:1025A000F6FFFF1FF5FFFF1F70B50E4B1C78E4B25E
:1025B000002C15D10C4D2968002906D04B88042029
:1025C0000B80FFF7C3FA2C600AE0FFF767FE011EDD
:1025D00003D00420FFF7BAFA02E00122034B1A707D
:1025E00070BDC046F6FFFF1FF8FFFF1FF5FFFF1F7E
:1025F00070B5234C2378002B40D101332370FFF7B3
:10260000DBFE002801D0FFF748FE00F02BF9002880
:1026100001D000F0DBF800F091F9002801D000F0C3
:10262000D6F800F0F7F9002801D000F0D1F8002327
:102630002370EFF30583002B20D1EFF3108272B6E5
:10264000104D2868002803D00F4C2178002903D0B2
:10265000002A13D162B611E00123237043692B6075
:10266000002B01D0996101E008490B60002A00D1DC
:1026700062B60025836845779847257070BDC046CF
:1026800005000020180000201C000020140000207D
:10269000EFF3108072B643425841C0B27047002831
:1026A00000D062B67047FFFF10B5FFF7F1FF0C4A8C
:1026B0001468002C10D063691360002B02D0002234
:1026C0009A6101E0074A1360FFF7E9FF0023200049
:1026D0006377A3689847E8E7FFF7E1FF10BDC046BE
:1026E000080000200C00002010B5FFF7DDFF10BD32
:1026F000164930B50B68002B02D18360C36009E036
:1027000004681A68944207D20025121B8360C560D2
:10271000D8601A60086016E002681C689968121B8D
:10272000026000290CD00C680B00A242F4D2816038
:10273000C968A21AC160D860C16888601A6002E0E6
:102740008160C36098600223037530BD10000020D3
:1027500070B5174D2C68002C19D02368002B02D0BF
:10276000013B236013E0A268002A00D0D36000215F
:1027700020692A60036821751B68220098476368F6
:10278000002BE7D023602000FFF7B2FFE2E7FFF75E
:102790007FFF0022074B1C681A60FFF780FF002CA8
:1027A00005D0A5682000FFF7A3FF2C00F7E770BD58
:1027B000100000202000002010B5034A13680133E8
:1027C0001360FFF7C5FF10BD10FFFF1F7047704774
:1027D0007047FFFF1B4B1C4A19781C4B082901D17D
:1027E000002102E00A2903D12E311160132206E0F4
:1027F0000C2901D1283100E03C21116012221A601D
:10280000134B1A78134B002A01D0002200E001225A
:102810001A60114B1A78114B012A01D880220CE062
:10282000042A01D8842208E0082A01D8852204E07D
:10283000102A01D8862200E087221A600122084B64
:102840001A707047A8FDFF1F08B003400CB003408A
:102850002500002020B00340A9FDFF1F24B0034045
:1028600024000020054B1878054BC0B21A78D3B26B
:10287000984200D24030C01A7047C046A9000020DC
:102880002700002030B5234A13799B0611D5224B2F
:10289000D479187819000130E4B200233F2800DC15
:1028A00003001E480078834203D01D48C454DBB2A5
:1028B0000B70D1781748C9B24BB2002B17DA0379E5
:1028C0005BB2002B13DA174B174C1D782378DBB261
:1028D0009D4202D16C23C37009E001333F2B00D924
:1028E00000231248C05CDBB2C0B2D0712370402319
:1028F00019420ED0117919420BD000210C4B1970DE
:102900000C4B1B688B4202D00B49097819722C239F
:10291000D37030BD00A00640A90000202700002091
:1029200068000020B0000020AA000020280000203D
:1029300026000020AC000020A8000020054B1878DD
:10294000054BC0B21A78D3B2984200D24030C01AB8
:102950007047C0461C010020B200002030B5234A59
:1029600013799B0611D5224BD479187819000130C0
:10297000E4B200233F2800DC03001E4800788342B5
:1029800003D01D48C454DBB20B70D1781748C9B2CC
:102990004BB2002B17DA03795BB2002B13DA174B1B
:1029A000174C1D782378DBB29D4202D16C23C37093
:1029B00009E00133272B00D900231248C05CDBB2A9
:1029C000C0B2D0712370402319420ED01179194240
:1029D0000BD000210C4B19700C4B1B688B4202D0A2
:1029E0000B49097819722C23D37030BD00B0064012
:1029F0001C010020B2000020DB0000202401002088
:102A00001D010020B3000020B100002020010020A3
:102A10001B010020054B1878054BC0B21A78D3B2C1
:102A2000984200D24030C01A7047C046980100203A
:102A30002D01002030B52C4A13799B0623D52B4B52
:102A4000D479187819000130E4B200233F2800DC63
:102A5000030027480078834203D02648C454D8B2E4
:102A600008702549086800280DD024490978C9B2A2
:102A70008B4201D35B1A01E05B1A4033272B02DD46
:102A80001F4B1B780371D1781748C9B24BB2002B8A
:102A900017DA03795BB2002B13DA1A4B174C1D7847
:102AA0002378DBB29D4202D16C23C37009E001336D
:102AB000272B00D900231448C05CDBB2C0B2D07110
:102AC0002370402319420ED0117919420BD00021F6
:102AD0000E4B19700E4B1B688B4202D00D490978C2
:102AE00019722C23D37030BD00C00640980100201D
:102AF0002D0100205701002028010020990100200D
:102B000056010020A00100202E0100202C010020F1
:102B10009C0100209701002030B585B072B670226C
:102B20004121154B1A70154A1170154A323911702E
:102B300080221A701A7852B2002AFBDA114B1868F8
:102B400062B6114B984201D80A23584301AC0A22BD
:102B50002100FEF73FFE00230C48E15C0500002940
:102B600005D05A008218013351800A2BF5D1013368
:102B70005B002B7005B030BD000002400700024032
:102B800006000240080002407F96980032FEFF1FB8
:102B90000B0010B50100180003F018FE10BDFFFF78
:102BA000416830B50A684B681468174D23431360B9
:102BB000502302680C24D3700023026893700368CA
:102BC00041681B78037CCA18127F083362439B005C
:102BD000AA185B5852681360427C8B181B7C043225
:102BE00063439200EB188A185B6852681A60837C12
:102BF000CA18283212780A3354439B002C19CB1878
:102C000062685B68136030BD506B0000F0B55F46D2
:102C10004D4656464446F0B491B01F0004000D00E6
:102C2000160000F0AFF9CF4B029003919B461B7842
:102C30005BB2994601334FD032003B00300039007F
:102C400003F02AFB0090002846D122002B00200030
:102C5000290003F021FB00228246002834D1002302
:102C60002000290001F07CFA00283AD0002200233D
:102C70003000390001F074FA0590002800D174E0AA
:102C800006AB9846012342460693B74B5360434632
:102C900052469C60DD601A621E615F6142460023FD
:102CA00000249361D4614B46002B00D194E00023B3
:102CB000AE4C009301940098019911B03CBC904631
:102CC0009946A246AB46F0BD00233000390001F022
:102CD00047FA002800D0EBE0029B039C009301948C
:102CE000E9E70298039900F07DFF8146002800D1B2
:102CF00086E0029803990022002301F031FA0028AF
:102D0000EAD02000290000F06DFF029A039B009298
:102D100001930028CFD03000390000F063FF029A01
:102D2000039B009201930028C5D006AB984604236C
:102D3000424606938C4B9460D56053600023002478
:102D4000136200239361D4615B461B78166157615F
:102D50005BB2022B04D0404600F04EFF002840D169
:102D600003F042FD222303603BE03000390000F015
:102D700039FF029A039B0092019300289BD0002206
:102D800000233000390001F0F1F9002800D192E76A
:102D900006AB9846012342460693734B5360434665
:102DA000059A9C60DD601A621E615F615B461B785C
:102DB0005BB2002B0BD0002042466D499061D1617F
:102DC000022B09D103F010FD2123036009E04246E4
:102DD000002300249361D461404600F00DFF0028D9
:102DE000F0D043461B6A002B04D003F0FDFC4346A1
:102DF0001B6A03604346DC699B69009301945AE7B0
:102E00002000290000F0EEFE002800D171E730001C
:102E1000390000F0E7FE002800D16AE70298039924
:102E20000B00020003F038FA06AB984600287AD16E
:102E30000323424606934C4B106253605B461B785B
:102E40009460D5605BB2166157619946002B48D1FA
:102E5000E0224146474B12068A61CB6120000022E6
:102E60000023290001F082F9002800D173E7002235
:102E7000414B3000390002F041FC04000D0000F02D
:102E8000C3FE02000B002000290001F069F90028B0
:102E900005D1E022394B120641468A61CB615B467F
:102EA0001B785BB299464B46022B00D053E757E79D
:102EB00006AB98460123424606932B4B536043468C
:102EC0009C60DD600024009A284D1A621E615F61DB
:102ED0009C61DD614B4600940195022B00D07BE79D
:102EE000E9E600224146264B20008A61CB610022A0
:102EF0000023290001F03AF90028D4D000221E4B0B
:102F00003000390002F0FAFB04000D0000F07CFEF6
:102F100002000B002000290001F022F90028BED198
:102F20000022134BB8E70123424606930E4B536031
:102F300043464A469C60DD601A621E615F61002460
:102F40005B461C57002C00D141E7002300221900EA
:102F5000100001F0AFFF43469861D961022C00D107
:102F600030E739E748FEFF1F706D00000000F03FBA
:102F70000000F0FFFFFFEF470000E03FFFFFEFC75B
:102F80000000F07FF0B556464D4644465F46F0B42B
:102F90001C001300670091B07F08009301940600A5
:102FA0000D0080468946A2463B4332D06E4B6C00F2
:102FB00064089C4229DC26D09F4226DC6A4B9F4253
:102FC00000D189E000239B464B46002B00DA87E0C6
:102FD000002A2FD1644B9F4200D19FE0634B9F4258
:102FE0005DD08023DB059A4501D100F0C1FB604B29
:102FF0009A451FD14B46002B1CDB3000290000F006
:10300000F7FC060007E000280DD05A4BE0183043CB
:103010000BD100265549300011B03CBC9046994672
:10302000A246AB46F0BDA742C8DD534800F0E6FD1E
:103030000600F0E73000290000F0D0FD4346002BE9
:103040001DD0EB0F013B98465B464246134379D0B7
:103050004A4B9F4200DC9FE0494B9F4201DC00F05D
:10306000CEFB484B9C4279DD5346002B79DD464A26
:10307000464B1000190002F041FB0600CBE7002C84
:1030800004D03A4AAB009B089342DAD15346002B56
:1030900000DAADE34B46002B0DDB0600BBE75346E1
:1030A0002900002BB7DA32002B0000202F4901F055
:1030B00001FF0600AFE72F4B9C465B4664441C4370
:1030C00001D100F02BFC5B460600012BA3D180232D
:1030D0001B069C4661449EE7002A00D172E794E7F4
:1030E0002B4B9F422BDC274B9F4200DC70E729498A
:1030F0003B158C466344142B01DC00F0F2FB3421B9
:10310000CB1A0099D94008009840824200D05FE76E
:103110000123194001335B1A9B4659E7154BE01810
:10312000064300D175E7174B9C4200DC51E3534640
:10313000002B16DB009B019C1E0021006BE7022385
:103140009B4645E732002B003000290002F050FD7D
:1031500002000B0001F0AEFE06005CE75346002BB8
:1031600085DB0026002156E70000F07F0000F03FDD
:103170000000E03F000010C0746D00000000E0415E
:103180000000F043FFFFEF3F9C7500883CE4377E72
:10319000FFFF3F4301FCFFFFE84B00229C4206DC9F
:1031A0000022E74B02F0AAFA35220C005242E54D0C
:1031B0002315AC46634499462403E34DE34B240BAB
:1031C000914425439C4209DDE14B9C4200DCA9E38C
:1031D00001239C46DF4BE1449C46654400230024C8
:1031E0000022089309940C930D940024D64B069268
:1031F0000793069A079B29000A900B9102F0F8FCAE
:10320000069A079B06000F000A980B9901F026FB0F
:1032100002000B000020CC4901F04CFE0A00010026
:1032200013000E910F9202003900300002F066FA8E
:103230000A000100802004910592130000228021E1
:103240000003844602920393002289056D100D430A
:1032500065442B190298039914001D0002F04EFAE0
:1032600002000B003000390002F0C2FC069A079BF6
:1032700006000F002000290002F0BAFC02000B003B
:103280000A980B9902F0B4FC029A039B02F036FAFA
:1032900002000B003000390002F0AAFC0E9A0F9BCE
:1032A00002F02CFA049D059E069007912A00330037
:1032B0002800310002F022FA06000F00A64AA74BB0
:1032C00002F01CFAA64AA74B01F0C8FA32003B00F4
:1032D00002F014FAA44AA54B01F0C0FA32003B00F8
:1032E00002F00CFAA24AA34B01F0B8FA32003B00FC
:1032F00002F004FAA04AA14B01F0B0FA32003B0000
:1033000002F0FCF99E4A9F4B01F0A8FA320004003B
:103310000D003B003000390002F0F0F902000B0014
:103320002000290002F0EAF9029E039F04000D002C
:103330000498059932003B0001F090FA069A079B29
:1033400002F0DCF922002B0001F088FA32000A902A
:103350000B913B00300039000296039702F0CEF942
:103360000022894B04000D0001F078FA0A9A0B9BA9
:1033700001F074FA00260F0032000B000298039946
:1033800002F0BCF90022029003917F4B300039001B
:1033900002F02EFC22002B0002F02AFC02000B009F
:1033A0000A980B9902F024FC049A059B02F0A6F9F6
:1033B000320004000D00069807993B0002F09EF9C8
:1033C00002000B002000290001F048FA04000D0063
:1033D00002000B000298039901F040FA0026E02257
:1033E0006A4B120630000F0002F088F9029A039B24
:1033F000049005913000390002F0FAFB02000B0046
:103400002000290002F0F4FB614A604B02F076F9DB
:10341000604A04000D00604B3000390002F06EF984
:1034200002000B002000290001F018FA0C9A0D9BF5
:1034300001F014FA060048460F0002F083FF040072
:103440000D000498059932003B0001F007FA089A34
:10345000099B01F003FA22002B0001F0FFF9002084
:1034600022002B000290039102F0C2FB089A099BF4
:1034700002F0BEFB049A059B02F0BAFB02000B00AF
:103480003000390002F0B4FB049005915B464246DF
:10349000013B134300D197E100232B4C0693079483
:1034A0000098019900260B0032000F0002F0A0FBEB
:1034B000029A039B02F022F9009A019B04000D007E
:1034C0000498059902F01AF902000B002000290067
:1034D00001F0C4F904000D00029803993B0032008A
:1034E0000494059502F00AF9009001910B00020086
:1034F0002900200001F0B2F9284B81460F008A46CE
:10350000994200DC3CE1264BCB18034300D0DBE1C1
:1035100004980599234A244B01F0A0F9009A019BD5
:1035200004000D004846390002F062FB02000B0067
:103530002000290000F02EFE3E0037E0FFFF0F00C4
:103540000000404301FCFFFF0000F03F8E980300A5
:1035500079B60B000000F0FFEF4E454A287ECA3FC7
:1035600065DBC9934A86CD3F01411DA96074D13FF7
:103570004D268F515555D53FFFAB6FDBB66DDB3F09
:10358000033333333333E33F0000084009C7EE3FD2
:10359000FD033ADCF5015B14E02F3EBEFFFF8F40D8
:1035A000000070BFFE822B654715973C002800D0B5
:1035B0008AE18022E74B52039C461300361566448D
:1035C0003341E549DB195E001C001B038C461B0BD5
:1035D00013431422760DE14F66443741961B334165
:1035E00098465346BC4300202100002B00DAA9E195
:1035F00002000B000098019902F0FAFA0B0000900B
:10360000019102000498059901F028F943461B0531
:10361000994600200022D24B06000F0002F06EF8FF
:10362000009A019B029003913000390002F0E0FA09
:1036300002000B000498059902F0DAFAC94ACA4B55
:1036400002F05CF8C94A04000D00C94B3000390093
:1036500002F054F802000B002000290001F0FEF8EF
:1036600004000D0002000B000298039901F0F6F827
:10367000029A039B06000F0002F0BAFA02000B0048
:103680002000290002F0B4FA3200009001913B00C2
:103690003000390002F032F804000D00B54AB64B94
:1036A00002F02CF8B54AB64B02F0A2FA22002B0029
:1036B00002F024F8B34AB44B01F0D0F822002B00FA
:1036C00002F01CF8B14AB24B02F092FA22002B0031
:1036D00002F014F8AF4AB04B01F0C0F822002B0002
:1036E00002F00CF802000B003000390002F080FA02
:1036F00004000D0002000B003000390001F0FEFF55
:103700008023029003910022DB052000290002F0B3
:103710006FFA02000B000298039901F0CBFB009AAC
:10372000019B04000D003000390001F0E7FF009A12
:10373000019B01F093F802000B002000290002F029
:1037400057FA32003B0002F053FA02000B0000204F
:10375000924902F04DFA4B465B181A15002A00DC1C
:10376000F4E01900069A079B01F0C8FF060052E436
:10377000320030002B00290001F0C0FF06004AE4AF
:10378000874B4E0076089E4200DCBFE0854BCB188D
:1037900003430CD1009A019B02F02AFA02000B00AD
:1037A0000498059900F0ECFC002800D101E7069888
:1037B00007997D4A7D4B01F0A1FF7B4A7B4B01F0CD
:1037C0009DFF0600FFF727FC0023794C0693079422
:1037D00066E65346002B00DBC3E4009B019C80227D
:1037E00012061E009446230063441900FFF713FCE1
:1037F00002000B000020694901F05CFB4AE46D4BBC
:103800009C4200DCAAE4654B9C4201DDFFF72CFCE6
:103810000022624B02F0ECF9C022674BD205040093
:103820000D0001F06BFF654A06000F00644B20009D
:10383000290001F063FF002202900391614B2000F8
:10384000290001F05BFF02000B005F485F4902F0B6
:10385000CFF922002B0001F051FF02000B000020E5
:103860005B4902F0C5F92200049005912B0020006D
:10387000290001F043FF02000B000498059901F0B4
:103880003DFF544A4C4B01F039FF02000B000298F7
:10389000039902F0ADF902000B0004000D003000A6
:1038A000390000F0DBFF002210003B0032000290E4
:1038B000039102F09DF902000B002000290002F0A4
:1038C00097F904900591E1E5434A444B069807991E
:1038D00001F014FF404A414B01F010FF0600FFF7D2
:1038E0009AFB002A01D0FFF7A5FB1432D31A3A0045
:1038F0001A41110099408F4201D0FFF76FFB01235D
:1039000013400222D31A9B46FFF768FB304B9E42BE
:1039100000DD4EE60023994698467AE602000B0049
:10392000FFF714FC80232E4CDB05089309942D4BE4
:103930002D4C00220C930D9480242C4BE402069213
:10394000079356E443465B42984651E6424600F0F0
:10395000FDF907E702FCFFFF01FCFFFFFFFF0F007F
:10396000432EE63FEF39FAFE422EE63F396CA80CB3
:10397000615C20BED0A4BE726937663EF16BD2C5D1
:1039800041BDBB3E2CDE25AF6A56113F93BDBE162E
:103990006CC1663F3E5555555555C53F0000F03F3B
:1039A000FFCB904000346F3F59F3F8C21F6EA50162
:1039B0000000F0BFFEFFEF3F4715F73F44DF5DF823
:1039C0000BAE543E0000D03F555555555555D53F8B
:1039D0000000E03FFE822B659C7500883CE4377E4A
:1039E00003B8E23F06D0CF43EBFD4C3E0000F83F6A
:1039F000F0B556464D4644465F46754BF0B40A0056
:103A00000D00190083B0060004002940994200D13E
:103A1000BAE0002D00DC94E02D1500D1A3E06D4B41
:103A200012039C468023120B5B0365441A43EB0789
:103A300000D581E06B109846E30F9B189B188022FD
:103A400016210026002764009203B818984202DC71
:103A500087181B1AB618E00F5B0001391B186400A9
:103A600052080029F1D100220192944680221206C8
:103A70002020914609E09F4241D0E10FC91801384A
:103A8000CB186400520800281ED0614651189F428E
:103A9000F1DA8D18AC46CD0FED07BA464D4539D059
:103AA000DB1B8C42BF417F42DB1B641A019901384A
:103AB0008B46934459460191E10FC9185746CB18DC
:103AC000640052080028E0D123432BD1019B5B08FE
:103AD000414972108C466244F10702D580210906E3
:103AE0000B43414609058D181E002F003000390098
:103AF00003B03CBC90469946A246AB46F0BDA142FD
:103B00000ED88D18AC46CD0FED074D4548D09A46DE
:103B10000023CAE76546002DC2DB7D1CAA46BFE72D
:103B20003B00AAE7019B01333ED0019A0123944652
:103B3000134063445B08CBE7E30F52009A1864001C
:103B400078E76B005B0803432F00002BCED00025E5
:103B5000002A31D1E20A153D6405002AFAD08023FB
:103B60005B031A4223D180200023400300E00B00B6
:103B70005200591C0242FAD02020401AED1A2300AC
:103B8000C3408C401A434AE702002B00290001F091
:103B9000B5FD32002B0000F061FE06000F00A5E726
:103BA0006546002DB9DAB2E70136002390E701231C
:103BB00020205B420021E1E73B000200390002F0D7
:103BC00017F802000B0001F075F906000F008DE7F1
:103BD0000000F07F01FCFFFF0000E03F49004B08C0
:103BE00019007047034B48009C4640086044C00FD2
:103BF0007047C04600001080002070470020014937
:103C00007047C0460000F87FF0B5474680B4CB0F40
:103C100098464A4C4B005B0D1E1982B007000A0003
:103C2000132E35DC002E57DB454B040033411F00BB
:103C30000F4007430D00002F24D05B081C000C40F0
:103C400020430027002807D0132E00D172E08022E5
:103C5000D202324199430A434346DE00394B1100F8
:103C60009E1934687568380022002B0000F0F6FDBC
:103C7000009001910098019922002B0001F0B8FFFB
:103C800004000D002000290002B004BC9046F0BDE5
:103C9000332E0CDD80230400DB000D009E42F1D1A9
:103CA00002000B0000F0DAFD04000D00EAE7264CEC
:103CB0000D00A446012463446442DC40A4466146EE
:103CC00004000142DED049080142C5D08027FF052B
:103CD0001F4188430743BFE74B005B0803430400D1
:103CE0000D00002BCED00B031B0B03435A42134392
:103CF00080221B0B120313404A0C52041343190079
:103D00004346104ADB00D3181C685D6822002B0074
:103D100000F0A4FD009001910098019922002B0071
:103D200001F066FF42464B005B08D60733430400B0
:103D30001D00A7E780273F0689E7C04601FCFFFF7B
:103D4000FFFF0F00786D0000EDFBFFFF4B0070B52B
:103D50005B0D14000A00002B1AD14B005B080343D3
:103D600015D00022224B01F0C9FC224B0A009C42D4
:103D700022DB4B005B0D363B1F4DE318AB4220DCD2
:103D8000002B0DDD1D4C1B0522401A43110070BD98
:103D90001B4DAB42F0D102000B0000F05FFDF6E7D7
:103DA0001D00353518DA174B02009C420ADC0B0067
:103DB0001548164900F032F8134A144B01F09EFCE6
:103DC000E5E702000B001248124900F027F8104AFC
:103DD000104B01F093FCDAE7084C363322401B0508
:103DE0001343190000220C4B01F088FCCFE7C046BA
:103DF00000005043B03CFFFFFE070000FFFF0F80B4
:103E0000FF07000050C3000059F3F8C21F6EA50160
:103E10009C7500883CE4377E0000903C30B54A0039
:103E2000DB0FDB0752081A43110030BD02B47146A4
:103E300049084900095C49008E4402BC7047C046ED
:103E400003B47146490840004900095A49008E44AC
:103E500003BC7047002243088B4274D303098B4292
:103E60005FD3030A8B4244D3030B8B4228D3030C4A
:103E70008B420DD3FF22090212BA030C8B4202D3EC
:103E80001212090265D0030B8B4219D300E0090A14
:103E9000C30B8B4201D3CB03C01A5241830B8B421D
:103EA00001D38B03C01A5241430B8B4201D34B0306
:103EB000C01A5241030B8B4201D30B03C01A52416B
:103EC000C30A8B4201D3CB02C01A5241830A8B42F0
:103ED00001D38B02C01A5241430A8B4201D34B02D9
:103EE000C01A5241030A8B4201D30B02C01A52413D
:103EF000CDD2C3098B4201D3CB01C01A52418309F1
:103F00008B4201D38B01C01A524143098B4201D32A
:103F10004B01C01A524103098B4201D30B01C01A55
:103F20005241C3088B4201D3CB00C01A52418308CF
:103F30008B4201D38B00C01A524143088B4201D3FC
:103F40004B00C01A5241411A00D20146524110465C
:103F50007047FFE701B5002000F0F0F802BDC04651
:103F60000029F7D076E7704703460B437FD4002241
:103F700043088B4274D303098B425FD3030A8B42FD
:103F800044D3030B8B4228D3030C8B420DD3FF2267
:103F9000090212BA030C8B4202D31212090265D035
:103FA000030B8B4219D300E0090AC30B8B4201D3E8
:103FB000CB03C01A5241830B8B4201D38B03C01A2F
:103FC0005241430B8B4201D34B03C01A5241030BA6
:103FD0008B4201D30B03C01A5241C30A8B4201D357
:103FE000CB02C01A5241830A8B4201D38B02C01A02
:103FF0005241430A8B4201D34B02C01A5241030A79
:104000008B4201D30B02C01A5241CDD2C3098B425D
:1040100001D3CB01C01A524183098B4201D38B01DA
:10402000C01A524143098B4201D34B01C01A52417D
:1040300003098B4201D30B01C01A5241C3088B42C2
:1040400001D3CB00C01A524183088B4201D38B00AD
:10405000C01A524143088B4201D34B00C01A52414F
:10406000411A00D201465241104670475DE0CA0F26
:1040700000D04942031000D34042534000229C46E6
:1040800003098B422DD3030A8B4212D3FC228901F0
:1040900012BA030A8B420CD3890192118B4208D3C6
:1040A000890192118B4204D389013AD0921100E028
:1040B0008909C3098B4201D3CB01C01A524183093C
:1040C0008B4201D38B01C01A524143098B4201D369
:1040D0004B01C01A524103098B4201D30B01C01A94
:1040E0005241C3088B4201D3CB00C01A524183080E
:1040F0008B4201D38B00C01A5241D9D243088B4264
:1041000001D34B00C01A5241411A00D20146634606
:1041100052415B10104601D34042002B00D549426A
:10412000704763465B1000D3404201B5002000F0A9
:1041300005F802BD0029F8D016E770477047C04661
:104140008446101C62468C46191C634600E0C0463B
:104150001FB501F069FA002801D40021C8421FBD33
:1041600010B501F0BDF94042013010BD10B501F0AD
:104170005BFA002801DB002010BD012010BDC04605
:1041800010B501F051FA002801DD002010BD01201A
:1041900010BDC04610B501F0E3F9002801DC002095
:1041A00010BD012010BDC04610B501F0D9F900289E
:1041B00001DA002010BD012010BDC0461C210123E2
:1041C0001B04984201D3000C10391B0A984201D3FA
:1041D000000A08391B09984201D30009043902A2D8
:1041E000105C40187047C04604030202010101013F
:1041F0000000000000000000002B15D1002A13D1A0
:10420000002906DB01DC002806D00020C04341085D
:1042100002E080210906002007B4024801A14018ED
:10422000029003BD19FFFFFF03B4684601B5029871
:1042300000F082F8019B9E4602B00CBC7047C0465D
:10424000F0B54F464646C0B41604360C99463300C6
:1042500005042C0C070C150C63437E436F43654328
:104260001C0CAD1964199C46A64203D980235B023D
:10427000984647446346250CEF191D044B464A43B4
:1042800043432D0C240464199918C91920000CBC4F
:1042900090469946F0BDC04670B500220C4B040014
:1042A0000D00FFF781FF002804D12000290002F053
:1042B00013F870BD064B00222000290001F098FC85
:1042C00002F00AF880231B069C466044F1E7C046D2
:1042D0000000E041D0B5012602000B00134F7642EA
:1042E000B6185F4104001248874219D9520504D01C
:1042F0008023E40AE4021B011C43080002F022F8B8
:1043000000220C4B01F0FAF906000F00200002F029
:104310005BF832003B0000F0A1FA02F0E1F8D0BDFA
:104320008742EAD1B01CE1D8E7E7C046FFFF1F0093
:10433000FFFF3F000000F041F0B583B016001F0002
:104340000090019102F058F904000D0002000B00EA
:1043500030003900FFF774FF009A019B121A8B415D
:10436000089920000A604B60290003B0F0BDC046E8
:10437000F0B5564644465F464D46F0B4440246000A
:10438000C70F83B08846650A360EBA463DD0FF2E69
:1043900022D00023EC00802599469B46ED0425435E
:1043A0007F3E43465C025800DB0F640A000E9846CD
:1043B00036D0FF2830D080230021E400DB041C43EA
:1043C0007F38301A0190484642460843724E8000BA
:1043D00030587A4013008746002D44D1082399466F
:1043E000063B9B46DDE70122FF2000241A406402C1
:1043F000C305640AD2071C431443200003B03CBC2D
:1044000090469946A246AB46F0BD002D20D104232C
:104410009946033B9B46C4E7002C17D1022102E0DA
:10442000002C0AD10121321A01924A4643460A431E
:104430005A48920082587B4097462000FFF7BEFE04
:10444000431F76309C4040420021BAE70321B8E781
:104450002800FFF7B3FE431F9D40002376304642FD
:1044600099469B469DE70C239946093B9B4698E756
:1044700080240022E403FF20B9E70024C2468B46D3
:104480005A465346022AAED0032A7DD0012A31D1A2
:10449000012200201A400024A9E70122101A1B283B
:1044A00056DD1A4000200024A1E78023DB031D42D3
:1044B0004BD18023DB032B435C02640A3A00FF20CC
:1044C00095E76D016001854230D2019A0024013ADE
:1044D00001921B220127290064006D00002901DBE5
:1044E000A84201D82D1A3C43013A002AF3D16A1E92
:1044F00095412C4301987F300028CEDD620704D01F
:104500000F222240042A00D00434220103D5244A79
:10451000019814408030FE2800DD64E70122A401E8
:10452000640AC0B21A4062E72C00A9E72D1A1A22C9
:104530000124CFE76B02BCD500248023DB031C439E
:104540006402640A4246FF2051E71C42B3D1F4E7FB
:1045500021002022C140101A8440621E94410C4365
:10456000620704D00F222240042A00D004346201E2
:1045700004D5012201201A40002438E70122A401B9
:10458000640A1A40002032E78023DB031C436402E4
:10459000640A5246FF202AE7886D0000C86D0000BB
:1045A000FFFFFFF7F0B557464E4645464300E0B4DF
:1045B00046028846760A1F0EC40F002F47D0FF2FF1
:1045C00025D0002380259A469946F600ED042E4317
:1045D0007F3F434642465D02D20F5B006D0A1B0ED1
:1045E000904640D0FF2B39D080220020ED00D2042D
:1045F00015437F3BFB1842465746591C62408C4688
:1046000007430F2F5CD86F49BF00C9598F46002E52
:1046100045D108239A46063B9946DAE742460228E6
:104620002DD0032800D1C3E0012800D0A2E000254E
:1046300000260240D4B27602ED05760A2E43E40746
:10464000264330001CBC90469946A246F0BD002E81
:104650001AD104239A46033B9946BAE72A00511E11
:104660008A41901CC6E70120002DC3D02800FFF727
:10467000A5FD431F76309D4043420020BAE7012448
:10468000FF2514400026D6E73000FFF797FD431FB3
:104690009E400023763047429A46994699E70C237C
:1046A0009A46093B994694E780260024F603FF25A5
:1046B000C1E735004846B2E7350022004846AEE77C
:1046C0002904090C0800370C3604360C2C0C7943ED
:1046D000704367437443060C64183619B14203D91A
:1046E00080214902884647440004000C310409181F
:1046F0008D01681E8541890E2943350CED19AD01E8
:104700000D43290104D5012369081D4063460D436B
:1047100019007F31002925DD680704D00F202840CB
:10472000042800D00435280103D5274980330D40E3
:104730001900FE29A3DC0124AD016E0A1440CDB29C
:1047400079E78020C003064207D0054205D12843FF
:104750004602760A4446FF256DE706437602760A4E
:10476000FF2568E70124611A1B2905DD1440002597
:10477000002660E76346CBE72E002023CE40591A7F
:104780008D406B1E9D412E43730704D00F23334091
:10479000042B00D00436730104D5012401251440F4
:1047A000002648E70124B601760A1440002542E7B6
:1047B00080260124F6032E437602760A1440FF2554
:1047C00039E7C046086E0000FFFFFFF770B500280C
:1047D00030D0C317C5185D40C40F2800FFF7EEFCAA
:1047E0009E231B1A962B0DDC9622D21A95406A0244
:1047F000520AD8B25202C005520AE40702432243C9
:10480000100070BD992B19DC9922D21A9540124ADA
:104810002A40690704D00F210D40042D00D0043236
:10482000510103D50C4B1A409F231B1A9201520AC7
:10483000D8B2DFE7002400200022DBE705222E00AB
:10484000121AB921D6402A00C91A8A40551EAA4117
:1048500035001543DBE7C046FFFFFFFBF8B55646C2
:104860005F464D464446F0B40F00FD0FAA460903CB
:104870007C002E005F00450F490A7F0D2943C500CB
:104880001803BC46400A570F640DDB0F3843D200B3
:104890009A4500D1AAE06646A61B002E00DCFFE088
:1048A0006346002B39D10300134300D0D9E06B07D6
:1048B00009D00F232B40042B05D02B1DAB42AD415B
:1048C0006D4249191D000B0200D482E0CA4B01342D
:1048D0009C4200D1FEE00A005646C84BED081A4043
:1048E0005007640552020543120B640D00211203A8
:1048F0000B0D1B056405120B1A436308C04CF60729
:1049000014401C43640064083443280021003CBC6C
:1049100090469946A246AB46F8BDB74B9C42C6D0DE
:1049200080231B041843382E00DDEBE01F2E00DD32
:104930001EE120239B1B9C4603006746BB40984614
:1049400013004746F3403B436746BA40571EBA41FF
:1049500013430200F240EB1A9D42B6411D008A1A31
:104960007642911B0B0231D54A02560A002E00D125
:10497000B4E03000FFF722FC0300083B1F2B00DDF2
:10498000B5E020222900D21AD1409E400A009D4065
:1049900032439C4200DDB1E01C1B631C1F2B00DD79
:1049A000D5E0202114002800C91A8C40D8408D4041
:1049B0000443DA40681E854111002543002476E750
:1049C0004146314300D134E2310045466B0700D007
:1049D0006FE756464807ED08C9080543864B9C42D9
:1049E00035D00A036405120B640D7FE76346E31AB2
:1049F0009B46002B00DC8BE06746002F3CD07E4FAF
:104A0000BC4200D153E780273F0438435B46382B34
:104A100000DCF7E00243501E82410020D2B253195D
:104A20004218AB4289411D00494289180B02CDD57D
:104A3000714B01349C4200D13DE101206F4A6B086B
:104A40000A4028401843D507054351082FE72B009B
:104A50000B4300D1CBE180231B030B431A03120B42
:104A600044E7013E002E6DD1AE1AB5429B41091AB2
:104A70005B42C91A350075E70700174300D116E7F6
:104A800001235B429C46E3445B46002B00D0E0E000
:104A9000AA18AA429B4109185B4259181500C5E79C
:104AA000002E75D1661C7605760D012E00DCF3E034
:104AB000AE1AB0464545BF410E1A7F42F61B37027B
:104AC00000D48FE0551BAA42B641411A76428E1B94
:104AD0009A464BE756460022002507E72800FFF7D5
:104AE0006DFB20300300083B1F2B00DC49E72A0048
:104AF0002838824000259C4200DC4DE73F49E41AFB
:104B00001140D4E60243501E8241D3B2002222E774
:104B1000002B00D0F3E0631C9C465B055B0D012B72
:104B200000DC9FE0344B9C4500D1C3E0AA18091873
:104B3000AA42804140424118CD0752081543490816
:104B40006446B4E62C4B9C4200D0ECE6AFE6110084
:104B50001F3CE1400C00202B00D17FE04021CB1A0C
:104B60009A4015436A1E95410021254300242DE7F4
:104B700033000700203BDF403B00202E70D0402751
:104B8000BE1BB0400243501E824113430022E2E6A6
:104B9000002C4FD0184CA44500D1ABE08024240455
:104BA00076422143382E00DDDFE01F2E00DD43E199
:104BB0002027BC1BA1460C004F46BC40A0462C0041
:104BC0004746F4403C434F46BD406F1EBD41F14057
:104BD0002C43151BAA429241411A5242891A64463B
:104BE0009A46BFE641464546314300D0BEE6002620
:104BF00000240025F2E6C046FF070000FFFF7FFF0C
:104C0000FFFF0F801F2B59DC2027FF1ABC4607002F
:104C100063469F405B46B9461700DF40B8464F46A3
:104C200043461F4363469A40531E9A415B463A43AC
:104C3000D840F4E60C002C435CD0F643002E55D14E
:104C4000551BAA42A441411A6442091B9A46644674
:104C500088E6964FBC4200D0D8E628E6002280E7DE
:104C600000208FE70B002B43002C00D0C2E0002B6C
:104C700000D101E10300134300D118E6AB18AB42A9
:104C8000B6410918764271180A0200D409E1884A2F
:104C90001D00114064460AE6002C5BD10E002E4335
:104CA00000D08AE00100114300D1C2E001001500EC
:104CB0009A46FCE56446002100258FE620235B42EE
:104CC0009C46DC4463460700DF405B46BC46202B25
:104CD00000D1ACE040235F46DB1B98400243501EEE
:104CE0008241634613431A00002098E66F4CA445A6
:104CF00000D057E70100150064469A46D7E5002C1E
:104D000039D10C002C436ED0DB43002B1AD0674CFA
:104D1000A44568D0382B00DDA4E01F2B00DDAEE0F9
:104D200020240F00E41AA740B9462F00DF40B84600
:104D3000A3464F46444627435C46A5406C1EA5410A
:104D4000D9403D43AD1895429B4109185B42591823
:104D500064466BE60C002C4315D1010011437BD057
:104D6000010015009A46514CA1E50D43691E8D4185
:104D70000021ECB22DE74D4CA44534D0802424040E
:104D80005B422143C6E7040014434ED0ED084C07B4
:104D90002C438025C9082D03294208D0C6082E427D
:104DA00005D1D208410711430C009A463100620F29
:104DB000C900E50011433D4C79E50600164300D1DA
:104DC00075E5AE1AB0464545BF410E1A7F42F61B47
:104DD000370200D4F4E5551BAA42B641411A764287
:104DE000891B9A4663E50100150064465FE50022D1
:104DF00000257BE5002B3BD00300134315D0ED08C5
:104E00004B072B438025C9082D03294207D0C4082E
:104E10002C4204D141070B002100D2081343C900E2
:104E20005A0F1143DD00214C41E5204C3FE50020A5
:104E300054E700260025D1E534000F00203CE74070
:104E40003C00202E2BD04027BE1BB1400D43691ED5
:104E50008D4100212C43BCE6802100260903134C20
:104E60000025BBE50D43691E8D410021EDB269E7C8
:104E7000010015000D4C1AE50100150017E51C0096
:104E80000F00203CE7403C00202B0CD04027FB1AB1
:104E900099400D43691E8D410021254352E70021B1
:104EA000D4E71D0092E50021F3E7C046FF070000AC
:104EB000FFFF7FFFF0B556464D4644465F46F0B4CF
:104EC0001D000E034C00CB0F87B0070092468146B1
:104ED000360B640D98466AD06D4B9C4235D08022CB
:104EE000430F12041343F6001E43C3009946694B57
:104EF00000279C460023644402932B0368001B0B8D
:104F0000ED0F51469B46400D009500D178E0604B77
:104F100098426CD05B46DA004B0F802109040B43AA
:104F200013439B465346D9005A4B9C46002360448A
:104F30004246201A6A40924601901F430F2F00D923
:104F4000B0E05548BF00C0598746374300D088E0DD
:104F5000002399460233082700260293CDE74346F3
:104F6000B34649460093029B009A9246022B00D01A
:104F7000BFE1002153460122002689461A40444BD6
:104F8000002136030C0D2405360B2643434C1B052C
:104F900026401E437600D207760816434846310065
:104FA00007B03CBC90469946A246AB46F0BD3300E4
:104FB00003434FD0002E00D1BCE13000FFF7FEF8D4
:104FC00003000B3B1C2B00DDADE11D220100D31AB9
:104FD00008393A008F408E40DA40B9461643304BCC
:104FE00000279C46002360444442029385E75346D1
:104FF0005A4613432CD1002300219B46023397E7E6
:105000000B4320D05B46002B00D19EE15846FFF7B2
:10501000D5F803000B3B1C2B00DD8FE10200594645
:10502000083A91408B461D21CB1A5146D9400B00BE
:1050300059460B4351469B469140194B9C46604450
:105040004042002374E7002300219B4601336FE7B1
:1050500003236DE7002399460133042700260293BA
:105060004BE703230C27029347E70122D51A382D7B
:1050700000DCB0E153461A40002100230026894697
:105080007EE700238026994600223603004B77E70F
:10509000FF07000001FCFFFF486E0000FFFF0F80CC
:1050A000F30300005E4500D972E100D16DE1019B80
:1050B0004D46013B01930023340002935B461E02E0
:1050C0000B0E1E430B020393330C994633041B0C47
:1050D000494620000093FEF7BDFE009B3700434386
:1050E0000600494620009846FEF73AFF2C0C0904BA
:1050F0000C43A04509D9E419731EA74200D95CE10D
:10510000A04500D859E1023EE4194346E41A494655
:105110002000FEF79FFE0300009A80465343494655
:1051200020009B46FEF71CFF2A040904120C0A43C8
:1051300093450DD94346D219013B974200D93AE134
:10514000934500D837E102235B429C46D219E044E4
:105150005B46D21A4346360433439B460399180CE8
:105160000B0C1D00059309045B46090C0C001B0485
:105170001B0C4443049159436B4368431B190D0CAA
:10518000EB189C4203D980246402A44660441C0CA2
:1051900009041B04090C20185D18824200D2DEE0CD
:1051A00000D1D7E0161A029B9C465D1BAC459B4183
:1051B0005B42F61AB74200D106E149463000FEF7DD
:1051C00049FE009B04004343494630009846FEF7E1
:1051D000C7FE2E0C09040E43B04509D9F619631E0B
:1051E000B74200D9F3E0B04500D8F0E0023CF61930
:1051F0004346F31A494618000293FEF72BFE009B24
:1052000006004343494602989846FEF7A9FE2D043E
:1052100009042D0C0D43A84509D9ED19731EAF42A1
:1052200000D9D6E0A84500D8D3E0023EED19240409
:10523000210043463143049E059A3000ED1A0B04C9
:105240000C0C1B0C58436643534354439A19030CEC
:105250009B189E4203D980225202944664441A0C41
:1052600000041B04000C14191B18A54250D34DD088
:1052700001231943964A019B94466344002B00DCAA
:10528000F3E64A0709D00F220A40042A05D00A1D76
:105290008A42894149428B4411005A46D20108D5BD
:1052A0005A468C4B1A4093468022D2009446019B6A
:1052B0006344894A934200DD5BE65A46C9085007B9
:1052C00008435602514601225B058146360B5B0DB1
:1052D0000A4055E680231B031E4211D05A461A424B
:1052E0000ED15E461E433603360B2A0089467B4BA1
:1052F00046E6032B00D1E1E0012BBBD11A40BBE60F
:105300001E433603360B4246744B39E6002BB1D0B0
:105310007D194A1EAF4252D91100A542A8D1039A65
:105320009A42A5D1A6E703003E00283B9E400023F9
:10533000994654E6FEF742FF203041E6030052460C
:10534000283B9A400021934677E65046FEF736FF09
:1053500020305EE6029B0026AB4200D323E7039E8B
:105360000299B44661448846B045B6415B467642F0
:10537000F619B218013B0291974213D290424FD8CE
:1053800000D18EE0161A9B460DE7894500D28EE6C5
:1053900074084B46F60735005B081D434B46DB0798
:1053A00002938BE69742EDD10399029CA142E5D985
:1053B0003E1A9B46F7E69846CAE61E00A5E6AC42B2
:1053C0003ED874D0110053E70121494252E71C0036
:1053D0000EE71E002BE71F2D3CDC20230A00584659
:1053E0005B1B9840EA4099400243481E81415E465B
:1053F0001143EE404B0709D00F230B40042B05D07F
:105400000B00191D99429B415B42F61833023CD5B3
:105410005346012200211A40002601238946AFE5A8
:1054200002235B429C46039CE344A446029B6344E4
:105430009846A045B6417642F6190293B218B1E6F5
:1054400003988A1E41008142B6417642F619AD1991
:10545000039161E71F225242D31A5A46DA401300E1
:10546000202D29D040225846551BA8400143481EF4
:10547000814107200B4318400026002809D00F2245
:1054800000261A401900042ABBD10B0070077602CF
:10549000360BDB0803439946012253461A4000238A
:1054A0006EE502998D42BBD89B4600267BE60398A9
:1054B0009842C5D3110032E70020D7E780265B462B
:1054C00036031E433603360B009A8946034B57E5D5
:1054D000FF030000FFFFFFFEFE070000FF070000C4
:1054E000F0B55F4656464D464446F0B41F035C0097
:1054F000DB0F9A46194B0E034D00C90F8046360B41
:105500006D0D8B4691463F0B640D9D4219D0134B98
:105510009C421BD00123A54206D018003CBC9046FB
:105520009946A246AB46F0BDBE42F6D1C845F4D17D
:10553000D34510D0002DF0D1304303005A1E9341C3
:10554000EBE7310001230143E7D1E0E73A430123D0
:10555000002AE2D1DEE70023DFE7C046FF070000B4
:10556000F0B55F46444656464D46F0B41F033C0B2B
:105570002C4F0E034D00A3465C008446360B6D0D88
:10558000C90F9046640DDB0FBD422BD0254FBC42A6
:105590002ED0002D0ED1304307008146784278414D
:1055A000002C17D15F463A4314D14B460020002B04
:1055B0000AD006E0002C02D15846024301D099429D
:1055C0001AD00123484218433CBC90469946A24653
:1055D000AB46F0BD0028F2D058425841012240426B
:1055E0001043F1E737000743D0D002204042EBE7F9
:1055F0005F461743CDD0F8E7A542E2DC05DB5E4508
:10560000DFD808D000205E45DED248424841012361
:1056100040421843D8E7C445D3D80020C445F4D34A
:10562000D2E7C046FF070000F0B55F464D4644464E
:105630005646F0B41C03240BA4462F4C0F034D0018
:105640005E00C90F80463F0B6D0D8B469146760D6F
:10565000DB0FA54220D0284CA64222D0002D12D12B
:10566000384344424441002E20D0002C0DD05C42EF
:10567000634101245B421C4320003CBC9046994698
:10568000A246AB46F0BD002E17D05B4519D05B4655
:105690005C4201231C43EFE7390002240143EBD1B4
:1056A000D9E7614602241143E6D1D7E761460A43B0
:1056B000DBD100240028DFD0E9E761460A43E4D1CA
:1056C000E5E7B54203DD01225C421443D4E7B5426D
:1056D000CDDB6745DBD809D000246745CCD25946DD
:1056E0004C426141012449420C43C5E7C845CED82C
:1056F0000024C845F3D3BFE7FF070000F0B55F46BD
:1057000056464D464446F0B40D0399464E002B0BC9
:1057100087B00700924680469B46760DCC0F002E40
:1057200069D06D4B9E4235D05B468022DD0012046D
:10573000430F13432B439B46C3009846674B0027F8
:105740009C460023664401934A4615035000D20F3D
:1057500053462D0B400D914600D176E05E4A9042B3
:105760006CD080225B0F120413435C4AED00944618
:105770001D4353460022DB00604449463618701C26
:105780006140029017430F2F00D9AFE05448BF008B
:10579000C759BF465B461F4300D088E000239B46A5
:1057A0009846023308270193CEE74946022A6AD079
:1057B000032A00D109E2012A00D0BBE111400022F6
:1057C000002300259046CCB200212D030A0D1205BE
:1057D0002D0B1543434A1B0515401D436D00E4077F
:1057E0006D0825434046290007B03CBC90469946C9
:1057F000A246AB46F0BD034352D05B46002B00D11E
:105800008AE15846FEF7DAFC03000B3B1C2B00DD57
:105810007BE11D22D31A3A0001005D46DA400839C7
:105820008D4013008F402B439B46B8462E4B0027DC
:105830009C46002360444642019385E752462A4332
:105840002CD100250023022297E752462A4321D07B
:10585000002D00D154E12800FEF7B0FC03000B3B03
:105860001C2B00DD46E11D21CB1A51460200D94018
:105870005346083A954093400D431B4A9446604472
:105880004042002279E7012400220C40124B0025FF
:10589000904699E70025002301226EE703226CE77A
:1058A00000239B4698460133042701934CE70323CA
:1058B0000C27019348E700238025984600242D03F8
:1058C000054B81E75D464346019A6FE75D464346D7
:1058D0002100019A6AE7C046FF07000001FCFFFFB4
:1058E000886E0000FFFF0F80F30300004246120C99
:1058F00091461A0C9446424617044A461B041B0C58
:105900005A43604690464A4642431000039262461C
:105910001C003F0C7A437C4342440192220C924685
:10592000019A5244904506D9824680204002804622
:10593000C24450460390100C049048462404240CA2
:105940001204121905922A0C2D042D0C68432C0008
:10595000824648467C4350438146200C804657434C
:1059600057444744BA4503D9802040028046C14489
:10597000380C3F04B84648442404240C0190049891
:10598000A044404404905846000C81465846040404
:10599000200C8246070048465F434C46434360461E
:1059A00060436446834650464443380C8446E418BA
:1059B0006444A34203D980235B029C46E3444846E7
:1059C0003F04230C3F0C2404E419574668436F43FB
:1059D00084464D46504655434243380C8146624406
:1059E0004A445B44944503D9802040028446654480
:1059F00003983F04834604983F0C8446E344C34520
:105A0000804140428246100484460198674484469F
:105A10006744A344BC46A345A4419946D444644288
:105A20008742BF41D4458041E144A04699459B410E
:105A30007F424042C8440743120CBA18A045A44113
:105A40005F423B0064422343D71843467D19DB0D78
:105A50006D021D435B465A02059B1A43531E9A4131
:105A60005B46DB0D1A4343465B021343EA0107D54D
:105A700001225C0813402343EA07029E13436D088A
:105A8000574AB218002A4BDD580709D00F2018409A
:105A9000042805D0181D98429B415B42ED18030075
:105AA000E80104D54F4A15408022D200B2184E4872
:105AB000824200DDE7E60124DB08680718436D0237
:105AC000530580462D0B5B0D0C407DE68022594628
:105AD0001203114208D0154206D115432D039846F2
